:100000000C9466070C9483070C9483070C94830765
:100010000C9483070C9483070C9483070C94830738
:100020000C9483070C9483070C9463260C941F266E
:100030000C94B6270C9483070C9483070C948307C5
:100040000C9483070C9483070C9483070C94830708
:100050000C9483070C9492270C9483070C948307C9
:100060000C9483070C9483070C9483070C948307E8
:100070000C9483070C9483070C9483070C948307D8
:100080000C9483070C9483070C9483070C948307C8
:100090000C9483070C9483070C9483070C948307B8
:1000A0000C9483070C9483070C9483070631FF0993
:1000B00074A1010975150026FF00952075088102BD
:1000C0000976150026FF00952075089102C00501EC
:1000D0000980A101850319012AB700150126B7007F
:1000E000950175108100C0050C0901A10185041955
:1000F000012AA002150126A002950175108100C0F9
:100100000660FF0961A1010962150026FF00952024
:10011000750881020963150026FF00952075089176
:1001200002C005010906A101050719E029E715002C
:100130002501950875018102950175088101050762
:10014000190029FF150026FF009506750881000596
:1001500008190129051500250195057501910295DC
:100160000175039101C000000000000000000000C4
:10017000000000000000000000000000000000007F
:10018000000000000000000000007E0F00D4FFFF10
:10019000FFC70000007800000000000000002A2BCC
:1001A0002800000000000000000000000000000027
:1001B0000029000000002C1E342021222434262790
:1001C000252E362D3738271E1F20212223242526B1
:1001D0003333362E37381F0405060708090A0B0C7F
:1001E0000D0E0F101112131415161718191A1B1CC7
:1001F0001D2F3130232D350405060708090A0B0C85
:100200000D0E0F101112131415161718191A1B1CA6
:100210001D2F3130354C7267626C696768742064D9
:10022000697361626C65205B454550524F4D5D3A84
:10023000207267626C696768745F636F6E66696776
:100240002E656E61626C65203D2025750A0072671F
:10025000626C6967687420656E61626C65205B45DD
:100260004550524F4D5D3A207267626C6967687401
:100270005F636F6E6669672E656E61626C65203DB7
:100280002025750A007267626C6967687420746F54
:1002900067676C65205B454550524F4D5D3A207253
:1002A00067626C696768745F636F6E6669672E6505
:1002B0006E61626C65203D2025750A0044454255FB
:1002C000473A2064697361626C65642E0A00444594
:1002D0004255473A20656E61626C65642E0A003FA4
:1002E00000433E20004F6E6573686F743A2061636F
:1002F000746976653A2025640A000A002530325870
:1003000020006B6579626F6172645F7265706F72F5
:10031000743A20007267626C696768745F636F6E1D
:100320006669672E7370656564203D2025640A0048
:100330007267626C696768745F636F6E6669672E67
:1003400076616C203D2025640A007267626C6967E3
:1003500068745F636F6E6669672E736174203D20F9
:1003600025640A007267626C696768745F636F6E08
:100370006669672E687565203D2025640A007267EE
:10038000686C696768745F636F6E6669672E6D6F0E
:100390006465203D2025640A007267626C696768A5
:1003A000745F636F6E6669672E656E61626C65204F
:1003B0003D2025640A007267626C696768745F6338
:1003C0006F6E66696720454550524F4D3A0A00727C
:1003D00067626C696768745F696E697420726762CE
:1003E0006C696768745F636F6E6669672E6D6F64B2
:1003F00065203D20302E2057726974652064656643
:1004000061756C742076616C75657320746F20451E
:100410004550524F4D2E0A007267626C69676874CE
:100420005F696E6974206565636F6E6669672069D0
:1004300073206E6F7420656E61626C65642E0A00B5
:100440007267626C696768745F696E69742073743F
:10045000617274210A007267626C696768745F690F
:100460006E69742063616C6C65642E0A0073757329
:1004700070656E64696E67206B6579626F61726426
:100480000D0A000A0025303862003A20002530327B
:1004900058000A722F632030313233343536370A30
:1004A000001E0F0500047F3F1F643214643214786D
:1004B0003C1E1E140A050A0025303258006C656483
:1004C0005F7461736B3A20007267626C696768746D
:1004D00020736574207370656564205B4E4F4545DD
:1004E00050524F4D5D3A2025750A007267626C6963
:1004F00067687420746F67676C65205B4E4F454575
:1005000050524F4D5D3A207267626C696768745F44
:10051000636F6E6669672E656E61626C65203D2053
:1005200025750A000001010101010101010102021A
:100530000202020202020203030303030303030491
:10054000040404040404050505050506060606065C
:10055000070707070708080808090909090A0A0A16
:100560000B0B0B0C0C0C0D0D0D0E0E0E0F0F0F10B8
:100570001011111112121313141415151616171742
:10058000181819191A1A1B1B1C1D1D1E1E1F2020AE
:10059000212222232424252626272829292A2B2CF8
:1005A0002D2D2E2F30313232333435363738393A1B
:1005B0003B3C3D3E3F404142434445464748494A13
:1005C0004C4D4E4F50515354555658595A5B5D5EE1
:1005D0005F616264656668696B6C6D6F707273757C
:1005E00077787A7B7D7E8082838587888A8C8E8FE0
:1005F00091939596989A9C9EA0A2A3A5A7A9ABAD0E
:10060000AFB1B3B5B7BABCBEC0C2C4C6C9CBCDCFFB
:10061000D1D4D6D8DBDDDFE2E4E7E9EBEEF0F3F5A9
:10062000F8FAFDFF7267626C69676874206D6F6429
:1006300065205B4E4F454550524F4D5D3A20257524
:100640000A007267626C69676874206D6F64652068
:100650005B454550524F4D5D3A2025750A00726743
:10066000626C6967687420656E61626C65205B4EC0
:100670004F454550524F4D5D3A207267626C696735
:1006800068745F636F6E6669672E656E61626C6524
:10069000203D2025750A007267626C6967687420C6
:1006A00064697361626C65205B4E4F454550524FE3
:1006B0004D5D3A207267626C696768745F636F6E44
:1006C0006669672E656E61626C65203D2025750A3E
:1006D000007267626C696768742073657420687360
:1006E00076205B4E4F454550524F4D5D3A20257563
:1006F0002C25752C25750A007267626C6967687411
:100700002073657420687376205B454550524F4DC9
:100710005D3A2025752C25752C25750A00726762B7
:100720006C69676874207261696E626F77207365A7
:1007300074206873763A2025642C25642C25642C5B
:1007400025750A00FFAA7F55407267626C69676869
:10075000742074696D657220656E61626C65642ECB
:100760000A007267626C696768742074696D6572EB
:100770002064697361626C652E0A00222325262895
:10078000292A2C2D2F3032333536383A3B3D3E4026
:1007900042434547494A4C4E5051535557595A5C6C
:1007A0005E6062646668696B6D6F71737577797B83
:1007B0007D7F81838587898A8C8E90929496989A82
:1007C0009C9E9FA1A3A5A7A8AAACAEAFB1B3B4B697
:1007D000B8B9BBBCBEBFC1C2C3C5C6C7C9CACBCCF2
:1007E000CDCED0D1D2D2D3D4D5D6D7D7D8D9D9DAC5
:1007F000DADBDBDBDCDCDCDCDCDDDDDDDDDCDCDC3A
:10080000DCDCDBDBDBDADAD9D9D8D7D7D6D5D4D361
:10081000D2D2D1D0CECDCCCBCAC9C7C6C5C3C2C136
:10082000BFBEBCBBB9B8B6B4B3B1AFAEACAAA8A793
:10083000A5A3A19F9E9C9A98969492908E8C8A894B
:10084000878583817F7D7B79777573716F6D6B6928
:1008500068666462605E5C5A5957555351504E4CFD
:100860004A4947454342403E3D3B3A3836353332AC
:10087000302F2D2C2A2928262523226B65796D619E
:10088000705F636F6E6669672E7261773A202530FC
:1008900032580A2E737761705F636F6E74726F6C7B
:1008A0005F636170736C6F636B3A2025750A2E630A
:1008B0006170736C6F636B5F746F5F636F6E747284
:1008C0006F6C3A2025750A2E737761705F6C6374C4
:1008D0006C5F6C6775693A2025750A2E73776170B5
:1008E0005F7263746C5F726775693A2025750A2EB2
:1008F000737761705F6C616C745F6C6775693A20C7
:1009000025750A2E737761705F72616C745F726710
:1009100075693A2025750A2E6E6F5F6775693A20F2
:1009200025750A2E737761705F67726176655F6502
:1009300073633A2025750A2E737761705F62616375
:100940006B736C6173685F6261636B737061636525
:100950003A2025750A2E6E6B726F3A2025750A2E85
:10096000737761705F6573636170655F63617073F6
:100970006C6F636B3A2025750A0064656275675F6A
:10098000636F6E6669672E7261773A202530325840
:100990000A2E656E61626C653A2025750A2E6D61BE
:1009A000747269783A2025750A2E6B6579626F61D9
:1009B00072643A2025750A2E6D6F7573653A20258D
:1009C000750A006565636F6E6669673A0A646566F5
:1009D00061756C745F6C617965723A2025750A00E7
:1009E0000A092D204D61676963202D0A443A0944A4
:1009F00065627567204D65737361676520546F6725
:100A0000676C650A583A094D6174726978204465CB
:100A1000627567204D6F646520546F67676C652051
:100A20002D2053686F77206B6579707265737365DD
:100A30007320696E206D61747269782067726964D1
:100A40000A4B3A094B6579626F61726420446562B2
:100A5000756720546F67676C65202D2053686F772A
:100A6000206B65797072657373207265706F727434
:100A70000A4D3A094465627567204D6F75736520AC
:100A8000546F67676C650A563A0956657273696FE9
:100A90006E0A533A095374617475730A433A0941F3
:100AA0006374697661746520436F6E736F6C652043
:100AB0004D6F64650A46312D4631303A09537769E6
:100AC00074636820746F204C6179657220302D3911
:100AD0002028463130203D204C30290A302D393A2B
:100AE0000953776974636820746F204C617965726B
:100AF00020302D390A47524156453A0953776974D7
:100B0000636820746F204C61796572203020286101
:100B10006C7465726E617465290A423A094A756D92
:100B20007020746F20426F6F746C6F616465720A1D
:100B30004553433A094A756D7020746F20426F6FB8
:100B4000746C6F616465722028616C7465726E618B
:100B50007465290A453A095072696E7420454550FA
:100B6000524F4D2053657474696E67730A42414356
:100B70004B53504143453A09436C656172204545EA
:100B800050524F4D0A000A092D20436F6E736F6C4F
:100B900065202D0A4553432F713A09717569740A0E
:100BA000002573000A092D20537461747573202D7C
:100BB0000A686F73745F6B6579626F6172645F6CF2
:100BC00065647328293A20253032580A6B657962AA
:100BD0006F6172645F70726F746F636F6C3A20251F
:100BE0003032580A6B6579626F6172645F69646C58
:100BF000653A20253032580A74696D65725F7265F6
:100C00006164333228293A202530386C580A003F75
:100C1000000A6D6F7573653A206F66660A000A6D8B
:100C20006F7573653A206F6E0A000A6B6579626FA3
:100C30006172643A206F66660A000A6B6579626FBA
:100C40006172643A206F6E0A000A6D61747269788D
:100C50003A206F66660A000A6D61747269783A20FC
:100C60006F6E0A000A64656275673A206F66660AED
:100C7000000A64656275673A206F6E0A000A0A4AC4
:100C8000756D70696E6720746F20626F6F746C6F22
:100C9000616465722E2E2E2000433E2000436C6559
:100CA0006172696E6720454550524F4D0A004C25D0
:100CB000640A002B0014001A00080015001700E059
:100CC0000004001600070009000A00E1001D001BD7
:100CD000000600190005001C0018000C001200138B
:100CE000002A000B000D000E000F0033003400112D
:100CF0000010003600370038002832E30021522C63
:100D0000002252E643000001001E021F02200221C1
:100D100002220201002D022E022F023002310201B6
:100D2000002900E300E200390034022302240225F6
:100D300002260227024C005000510052004F00359D
:100D40000035024A004D004B004E0046002C320197
:100D5000000100280001000100000001001E001F2A
:100D60000020002100220001002D002E002F003065
:100D700000310001002900E700E6003900340023BB
:100D80000024002500260027004C003A003B003CD0
:100D9000003D003E003F004000410042004300444F
:100DA000004500010001002A0001000100000027A9
:100DB00078257823782178000020782878267824F0
:100DC0007822780000000000000000000000000011
:100DD0000000000000000000000000000000000013
:100DE0000000000000000000000000007C00000087
:100DF00000000000000000010001000000010001EF
:100E00000000005B435D005B445D005B535D005B85
:100E1000575D005B525D0009027B00040100A0FAEF
:100E20000904000001030101000921110100012250
:100E300044000705810308000109040100020300C2
:100E40000000092111010001222200070582032070
:100E5000000107050303200001090402000103004B
:100E6000000009211101000122320007058403203E
:100E70000001090403000203000000092111010020
:100E80000122220007058503200001070505032034
:100E9000000112010002000000080778CBDC01000D
:100EA00001020001140372006500760069007500FC
:100EB0006E0067003400310000000C03670074000E
:100EC00069007000730000000403090411241FBEB0
:100ED000CFEFDAE0DEBFCDBF23E0AAE5B2E001C08C
:100EE0001D92AC37B207E1F712E0A0E0B1E0E0E01C
:100EF000F0E602C005900D92AA35B107D9F70E941D
:100F0000DD270C94972F0C940000FF93EF93E09152
:100F10005A02F0915B02309709F00995EF91FF9129
:100F20000895FC018591803011F0EFDFFBCF08952B
:100F3000FF27E0E230E247FF0CC0419597FF09C070
:100F4000EDE26095709580959095611D711D811DF4
:100F5000911D27FF02C0219530E350E2AA27660FBA
:100F6000771F881F991FAA1FA41710F0A41B639551
:100F70005A95A9F7AA3008F0A95FA05DAF93F39541
:100F8000611571058105910541F7ED3211F4EF937B
:100F9000F395F21718F43F93F395FBCF8F91B5DFDC
:100FA000FA95E1F70895E991F9918591803021F062
:100FB000853219F0AADFF9CF089520E0E894559121
:100FC0005532C1F3503311F4689455915A3348F4B3
:100FD000505390F3220F022E220F220F200D250FC7
:100FE000F4CF0EF4219589919991533619F3533723
:100FF00029F1533559F1BC0188279927E8945C36CB
:1010000021F48991999168945591543639F446EFB9
:101010007EF077FF0DC08FEF9FEF0AC055374AE093
:1010200039F0583540E121F0523642E009F0089598
:10103000FF93EF937DDFEF91FF91B7CFFF93EF9396
:10104000FC0181918030B9F360DFFBCFFF93EF9318
:1010500068DFF1CFDF93CF93CDB7DEB72596A3DF5F
:10106000CF91DF910895482F2091740390913B0315
:1010700057E0291302C080E0089530E0529FF0014C
:10108000539FF00D1124E45CFC4F8181681306C06E
:101090008081481303C085818111EECF2F5F3F4FC0
:1010A0002770E7CFE8EDF0E080818E7F808310929B
:1010B000E2001092DA001092E100A0EEB0E08C9114
:1010C00081608C9380818F77808319BCA7EDB0E01D
:1010D0008C918E7F8C9380818F7E808310922403ED
:1010E00008952091E4003091E50095E6A901209152
:1010F000EC00822F817020FF06C08091E80080FF05
:1011000006C080E008952091E80022FD1AC0809179
:101110003103882389F0853089F08091EB0085FDCB
:101120000FC02091E4003091E50042175307F9F217
:101130009150E1F684E0089582E0089583E00895F7
:1011400081E008958091330387FF13C08091E80008
:1011500082FF06C08091E8008B778093E80004C08E
:10116000809131038111F2CF08958091310388235A
:10117000D9F38091E80080FFF8CF8091E8008E7766
:10118000ECCF982F9093E900242F762F50E0891709
:1011900031F07091EC002091ED005091F00021FDB4
:1011A00007C09F5F973071F78093E90081E0089551
:1011B0003091EB003E7F3093EB003091ED003D7FAE
:1011C0003093ED003091EB0031603093EB00709381
:1011D000EC002093ED005093F0002091EE0027FDED
:1011E000E0CF80E00895B0E0A0E0E9EFF8E00C94F3
:1011F000032EC8EDD0E088818F7E8883E7EDF0E094
:1012000080818160808384E082BF81E080932403B9
:1012100088818E7F888302EE10E0F80110821092A0
:10122000DA0081EEC82ED12CF601108288818F77EA
:10123000888388818068888388818F7D888319BCB2
:1012400010923103109232031092300310922F0348
:1012500090EEE92EF12CF70180818B7F80838881CD
:101260008160888342E060E080E00E94C108F6016E
:1012700080818E7F8083F80180818160808380817E
:1012800088608083F70180818E7F80838881806180
:101290008883CDB7DEB7E8E00C941F2EFC01809167
:1012A000390390913A0386179707A0F061157105ED
:1012B00029F49091E8009E779093E80090E0611502
:1012C000710551F4911108C08091E80082FF34C08B
:1012D00080E00895BC01F2CF809131038823C1F1F1
:1012E0008530C1F18091E80083FD30C08091E80035
:1012F00082FDEACF8091E80080FFE1CF8091F3008A
:101300002091F200382F6115710519F02830310550
:1013100058F091E02830310509F090E02091E80084
:101320002E772093E800CBCF81918093F10061501C
:1013300071092F5F3F4FE7CF80913103882341F040
:10134000853041F08091E80083FFBECF81E00895B1
:1013500082E0089583E0089508950895809126031A
:10136000089587E797E7909301088093000888E144
:101370009AE00FB6F894A895809360000FBE909302
:101380006000FFCF2FB7F8946091750370917603DA
:1013900080917703909178032FBF08952FB7F89429
:1013A0008091750390917603A0917703B0917803B3
:1013B0002FBF0895A3E0B0E0E0EEF9E00C94092E11
:1013C00020911E0330911F0328173907A1F0909335
:1013D0001F0380931E03E0911C03F0911D033097BF
:1013E00051F024E029839B838A830680F781E02DD6
:1013F000CE01019609952396E2E00C94252EA3E0F8
:10140000B0E0E5E0FAE00C94092E20911A03309147
:101410001B0328173907A1F090931B0380931A032D
:10142000E0911C03F0911D03309751F023E02983D4
:101430009B838A830680F781E02DCE010196099572
:101440002396E2E00C94252EE0911C03F0911D03FD
:10145000309729F00190F081E02D0995089580E002
:101460000895FA01811101C0FB0109950895809149
:101470001003982F9E7F29F481708260809310035F
:1014800008958635E8F381708465F8CFAF92BF92F6
:10149000DF92EF92FF920F931F93CF93DF93082F6A
:1014A000162FE901E42FF0E0EC5DFA4F611110C056
:1014B000E4915E2F4E2F4983E8835A83DF91CF91C9
:1014C0001F910F91FF90EF90DF90BF90AF90089524
:1014D000E62EF12C4491D42EE42FF0E026E0829FFA
:1014E000C00111242FEF30E0B9010E94B52D802FEB
:1014F00090E0880F991F55E5569FD001579FB00D7A
:1015000011248A1B9B0B982F990F890F5901AE1834
:10151000BF08AE9ED001AF9EB00DBE9EB00D11248F
:101520005B2F189F80011124012F11275901A01A48
:10153000B10AAE9E8001AF9E100DBE9E100D11240B
:101540005901A81AB108AE9CC001AF9C900DBE9C79
:10155000900D1124892F9927281B390B2E9FC0012C
:101560002F9F900D3E9F900D1124E92F6230710541
:10157000A1F050F46115710509F49DCF613071053A
:1015800081F0EB2F512F97CF6430710569F080F017
:101590006630710509F48FCFF4CFE42F4B2F592F0C
:1015A0008ACFE42F412F87CFEB2F542F492F83CFA2
:1015B0004B2F5D2DE12F7FCFF894E82FE295EF7050
:1015C000F0E031A1282F2F7081E090E001C0880F5A
:1015D0002A95EAF7982F9095932391A392A1892BAE
:1015E00082A3789408959091990292FF10C041E0EF
:1015F000282F2471243009F040E031E0282F287191
:10160000283009F030E0431711F02CE0822793FFD7
:1016100010C041E0282F2471243109F040E031E06E
:10162000282F2871283109F030E0431711F02CE001
:10163000822730919A0230FF10C051E0282F21718B
:10164000213009F050E041E0282F2871283009F0BE
:1016500040E0541711F029E0822731FF10C041E02B
:10166000282F2171213109F040E031E0282F287125
:10167000283109F030E0431711F029E0822794FD6A
:10168000877E089582389105B9F1B0F481339105D0
:1016900009F47DC048F48932910509F46DC08A329D
:1016A000910509F47BC008958533910509F45FC065
:1016B0008933910509F10895833E9105D9F138F4F4
:1016C000803E910529F1823E910579F10895863E8B
:1016D0009105D9F1873E910509F43EC0843E9105FC
:1016E00041F520919A0221FF24C08091990284FD46
:1016F00019C087EE90E0089520919902237009F0B7
:101700005AC020919A0223FF14C089E290E0089504
:101710002091990220FD38C030919A0230FF09C013
:1017200024FF43C090E080E008952091990222FDBB
:10173000F7CF08952091990222FD3AC030919A0284
:1017400030FD39C024FFF5CFEDCF2091990223FF62
:10175000F0CF24FDE7CFCDCF2091990223FD2EC0FD
:1017600030919A0231FFEECF84EE90E008952091FF
:10177000990225FFDECFC9CF2091990225FD21C016
:1017800020919A0223FFD5CF89E390E0D2CF209118
:10179000990226FFCECF8AE290E008952091990227
:1017A00026FFC7CF81E390E0089583EE90E008958F
:1017B00082EE90E0089580EE90E0089586EE90E04D
:1017C000089585E390E008951F93CF93DF930E94DF
:1017D000420BEC01C11580E5D807F0F5C11580E496
:1017E000D80708F09CC0C03ED10520F5CD3CD105FE
:1017F00008F082C0C83AD10578F4C53AD10508F09E
:1018000073C0C130D10519F1209709F1C430D10559
:10181000F0F4D0E0C0E01BC0C33CD105D0F7C85AFB
:10182000D0E0CC0FDD1FC952DE4F0990D881C02D0A
:10183000D4640DC0C11580E2D80708F0D1C0C1152D
:1018400081E0D80708F05AC0C83ED10510F7CE0194
:10185000DF91CF911F910895C03682E5D80718F522
:10186000C03482E5D80708F06BC0C03282E5D807E3
:1018700008F05FC0C11582E5D80708F497C02C2F87
:101880002695269580E2289F900111248C2F837045
:10189000C1E0D0E002C0CC0FDD1F8A95E2F7C22B79
:1018A000D32BDD68D4CFC03A82E5D80760F4C038C6
:1018B00082E5D80708F459C0CF71D0E0DC2FCC27DF
:1018C000C46FD06AC4CFC03C82E5D80708F462C0B8
:1018D000C03E82E5D80708F09CCFDC2FCC27CC2770
:1018E000DF71C06FD06AB3CFC55AD0E0CC52DE4FA3
:1018F000C881D0E0D064ABCFD065A9CF8D2F0E9436
:10190000F30A182FCE0199270E94420BC12FD0E075
:10191000DC2FCC27CC27DF71C82BD92B98CFCE0159
:1019200099270E94420BCC27DF70C82BD92BD06A95
:101930008ECFCF71D0E0DC2FCC27C16FD06A87CF9C
:101940002C2F26952695277080E2289F9001112440
:101950008C2F8370C1E0D0E002C0CC0FDD1F8A95D0
:10196000E2F7C22BD32BDC6872CF2C2F269526955D
:10197000277080E2289F900111248C2F8370C1E092
:10198000D0E002C0CC0FDD1F8A95E2F7C22BD32B2B
:10199000DA685DCF8C2F8F710E94F30AC82FD0E0D8
:1019A000DC2FCC27CC27DF71D06251CF8C2F8F71E9
:1019B0000E94F30A55E0D695C7955A95E1F7CF7086
:1019C000D0E0DC2FCC27282F30E084FF05C044E096
:1019D000220F331F4A95E1F7C22BD32BD06937CFA3
:1019E0008D2F8F710E94F30A182FCE0199270E9424
:1019F000420BC12FD0E0DC2FCC27CC27DF71C82BC6
:101A0000D92BD2CF809590918A02982390938A0205
:101A10000895EEE5F2E09191891303C0DF0111977B
:101A20001C9292E0E436F907B1F70895AEE5B2E012
:101A3000EFEF90E02D91821751F0EF3F19F4211153
:101A400001C0E92F9F5F9630A9F7EF3F09F4089591
:101A50000E2E000CFF0BE45AFD4F828308958091F7
:101A6000740390913B03981301C008958F5F8770B2
:101A7000FACF292F973078F5863068F590E036E078
:101A8000239F800D911D1124682F677023E0969588
:101A900087952A95E1F7FC01EE0FFF1FE80FF91F6C
:101AA000EA59FD4F50E040E080E0219130E0062E01
:101AB00002C0369527950A94E2F721703327042E49
:101AC00001C0220F0A94EAF7822B4F5F5F4F433029
:101AD000510559F7089580E00895292F973098F51A
:101AE000863088F590E036E0239F800D911D11240B
:101AF000282F277041E001C0440F2A95EAF723E020
:101B0000969587952A95E1F7FC01EE0FFF1FE80FE8
:101B1000F91FEA59FD4F30E020E070E05191DF01FC
:101B20001197CB01022E02C0969587950A94E2F791
:101B3000817081958527842385278C932F5F3F4F64
:101B40002330310559F708958093980208959091B4
:101B5000980221E030E0F90101C0EE0F8A95EAF722
:101B6000D90102C0AA0FBB1F6A95E2F7EA2B01C098
:101B7000220F4A95EAF7892F8E23E81305C0292BF7
:101B8000822F0E94A40D089520952923F9CF21E0EA
:101B900030E001C0220F8A95EAF7209580919802E3
:101BA00082230E94A40D089590917F02809589233D
:101BB00080937F02282F277069F4891759F090913C
:101BC0009A0292FF07C08695869586950E94C70D5A
:101BD00010927F02089521E030E001C0220F8A9523
:101BE000EAF780919802822B0E94A40D08958093B9
:101BF0008B020895829590E09C01220F331F220FE3
:101C0000331F2C7C95958795959587958373282B05
:101C100030E0C901880F991F8A7A35952795257577
:101C2000822B08959FB7F894109222039FBF909142
:101C30003103943009F048C02091E9002F703091B1
:101C4000EC00932F917030FD90E8922B25E02093CB
:101C5000E9002091EB0020FF34C02091EE0027FF27
:101C600030C020912103222321F02091E80025FF9C
:101C700028C01092210326E03091E80035FF14C0FF
:101C80008093F1008091E80085FD27C08091E800F5
:101C900080FFFCCF8091E8008E778093E8009F70F2
:101CA0009093E90080E0089530913103343049F495
:101CB0003091EB0035FD05C0215041F481E0809367
:101CC00021039F709093E9008FEF0895EFE9FFE003
:101CD0003197F1F700C00000CFCF8FB7F89421E023
:101CE000209322038FBFDBCF0F931F93CF93DF93FC
:101CF0008B01EA0190913103943061F58093E90002
:101D00008FEF9091E800815095FD06C095ED9A9572
:101D1000F1F700008111F5CF8091E80085FF1AC02E
:101D20000E947108811111C08091E80085FD06C0F4
:101D30008091E8008E778093E800F2CFF8018191DE
:101D40008F018093F100219779F78091E8008E77D9
:101D50008093E800DF91CF911F910F91089543E0A8
:101D600050E0BC0184E00E94740E0895CF93DF938D
:101D7000EC0148E050E0BC0181E00E94740E88E074
:101D8000FE01A7E2B3E001900D928A95E1F7DF91A1
:101D9000CF9108958091100380FD0AC0E8EBF2E036
:101DA000118210821282339652E0E93DF507C1F7A5
:101DB000539A3BB1377F2BB128604FB7F89488EB2B
:101DC00092E0FC015191CF0168E02BB9000000C006
:101DD00057FF3BB9550F000000C000C000C03BB921
:101DE00000C06A9591F7F2E0893D9F0751F74FBF18
:101DF0008FE594E00197F1F700C000000895EF929D
:101E0000FF920F931F93CF93DF938C01C8EBD2E027
:101E1000F12CE12CF801948160911203809111035F
:101E2000F5E0EF16F104ECF49923E9F09E014091FE
:101E300013030E94460A2FEFE21AF20A23968BE060
:101E4000E816F10439F70E94CA0EF801848190E087
:101E50000196817099278483CDB7DEB7E6E00C94B4
:101E6000212E992319F39E0140E0E3CFB0E0A0E0DA
:101E7000ECE3FFE00C94FF2DEC014C81042F10E00B
:101E80009801D8010E94882F9B01AC010E94532F1A
:101E90004B015C01E0E2F0E0E01BF10BA5E5B0E0F6
:101EA000AC019B010E94532F6B017C019F01DF015C
:101EB0000E94EA2D9B01AC010E945E2F9B01AC01A8
:101EC000280D391D4A1D5B1DC701B6010E94662FF2
:101ED000F22E822F90E039E23F1598F143E0249FE3
:101EE0009001112435952795122F109598EBC92E46
:101EF00092E0D92E00E085E5E82EEF188E2D01FD49
:101F00008F2D9601412F609112030E94460A0F5FA8
:101F100053E0C50ED11C0B3089F70E94CA0E9C817C
:101F200081E0992319F0903219F48FEF8093190111
:101F300080911901890F8C83CDB7DEB7ECE00C944A
:101F40001B2E25E530E0A901481B590BCA019A0157
:101F5000220F331F280F391F37FFC4CF2F5F3F4F8A
:101F6000C1CF0F931F93CF93DF93C8EBD2E0FE0155
:101F7000118210821282339682E0E93DF807C1F7A0
:101F800010E000E08091B602082E000C990B0817B3
:101F900019078CF180911801082E000C990B8017FD
:101FA00091074CF19E0140911303609112038091BF
:101FB00011030E94460A0F5F1F4F23960B30110535
:101FC00009F70E94CA0E809117019091B602980FEE
:101FD0009093B60220911801280F20931801121631
:101FE00014F49A301CF0819580931701DF91CF9102
:101FF0001F910F910895198218821A82DCCFB0E0E8
:10200000A0E0E5E0F0E10C94022EFC018281DD24E9
:10201000DA9480FD02C0DD24D39408EB12E0D0E016
:10202000C0E02BE0B22EF80111821082128294E0FF
:10203000E92EF12CC12C8091B5028C0D8C30C4F1AD
:102040006B2D0E94A72D892F082E000C990B8C1741
:102050009D0791F4809113038E9DA0018F9D500DDB
:102060001124559547955595479598016091120310
:10207000809111030E94460ACD0CF1E0EF1AF1089D
:10208000D1F621960D5F1F4FCB30D10561F60E942E
:10209000CA0E8091B50291E0D91210C081110CC016
:1020A0008AE08093B502CDB7DEB7E9E00C941E2E2E
:1020B00087FFCACF855FC8CF8150F3CF90E00196EC
:1020C000BE010E94C92DEDCFEF92FF921F93CF93D7
:1020D000DF93EC0188EBE82E82E0F82E10E08C8193
:1020E00097014091130360911203810F0E94460AE9
:1020F000195E83E0E80EF11C1D3F89F70E94CA0EAD
:102100009A818C8190FF08C08F5F8C83DF91CF9183
:102110001F91FF90EF9008958150F7CF9091100399
:1021200090FF0CC0E8EBF2E081836083428333963A
:1021300092E0E93DF907C1F70E94CA0E0895A3E0B5
:10214000B0E0E5EAF0E10C94072E8C018091B70233
:1021500081110AC09E012F5F3F4F4FEF6FEF0E942A
:10216000460A8A818093B702F8016481613069F080
:102170008091B70240E0662361F040E0623011F4E4
:102180004091B70280E060E004C06091B70240E097
:1021900080E00E948E10F801848190E0019663E057
:1021A00070E00E94C92D84832396E4E00C94232ED2
:1021B000A3E0B0E0EEEDF0E10C94092E9091100355
:1021C00090FF0AC09E012F5F3F4F0E94460A4B813D
:1021D00069818A810E948E102396E2E00C94252E5C
:1021E000CF93DF93EC01E0E1F3E0438162818C81E6
:1021F0000E94D8108C818F5F8C83DF91CF910895DE
:10220000CF93DF93EC01EC81F0E0E558F84F449177
:10221000E0E1F3E0628181810E94D8108C818F5FC0
:102220008C83DF91CF910895CF93DF93C9E7D1E0FD
:1022300060E0CE010E94002F2196C11584E0D807EE
:10224000B9F7DF91CF9108951F93CF93DF93122FAA
:102250008430E0F46730D0F44630C0F4C42FD0E0CE
:10226000CC0FDD1F9CE0699FC00DD11D112494E5AA
:10227000899FC00DD11D1124632FCE0189960E9424
:10228000002F612FCE018A960E94002FDF91CF91FF
:102290001F910895AF92BF92CF92DF92EF92FF927B
:1022A0001F93CF93DF9383EBC82E8CE0D82ED0E022
:1022B0007601C0E014C0F50125913491412F6C2FB7
:1022C0008D2F0E94241182E0A80EB11C1F5F1630D2
:1022D00091F78CE0E80EF11CCF5FC73019F0570181
:1022E00010E0E9CFDF5F84E5C80ED11CD43001F7E0
:1022F000DF91CF911F91FF90EF90DF90CF90BF9033
:10230000AF900895CF93C82F6FEF811163E285E2FC
:1023100090E00E94002F6FEFC11169E086E290E02B
:102320000E94002F6FEFC11166E287E290E00E94E9
:10233000002FCF91089580E00E94821160E088E232
:1023400090E00E94002F0E944A110E94141181E027
:102350000E94821108950F931F93CF93DF938430CF
:1023600030F5673020F5463010F5C42FD0E0CC0FA3
:10237000DD1F2CE0629FC00DD11D112434E5839F29
:10238000C00DD11D1124CE0189960E94DC2E082F8C
:1023900010E0102F0027CE018A960E94DC2E9801B3
:1023A000282BC901DF91CF911F910F91089590E0E3
:1023B00080E0F8CF462F773040F4663030F4843038
:1023C00020F4672F0E94AB11089590E080E00895FB
:1023D000CF92DF92FF920F931F93CF93DF936C0105
:1023E0000091980280918B02082BC3E0D0E010E0AE
:1023F000FC2EC8010C2E02C0959587950A94E2F731
:1024000080FD0CC02197A0F7F12C8F2DDF91CF918B
:102410001F910F91FF90DF90CF900895B6018C2F00
:102420000E94DA110E94E40B019761F3EECFCF9383
:10243000DF93EC010E94E811BE010E94DA110E94B4
:10244000E40BDF91CF910895FC0124812223C1F098
:10245000808191810E94171292959F70963091F021
:1024600058F4925F9F70923058F4803F19F030F426
:10247000883E30F481E008959A5FF4CF843FD1F331
:1024800080E00895883EB0F3813FD1F7F3CFA6E016
:10249000B0E0EDE4F2E10C94082E49835A834981BF
:1024A0005A819923A1F0222391F0CA010E94E811D8
:1024B000182F682F89819A810E946D0D69817A8118
:1024C000812F0E94DA112696E3E00C94242ECA0193
:1024D0000E94390D182FF2CF85E290E00E94DC2E89
:1024E000833289F486E290E00E94DC2E893059F430
:1024F00087E290E00E94DC2E91E0863209F090E0C5
:10250000892F8170089580E0FCCF1092B4028091F1
:10251000190380FF08C082E697E09F938F930E9483
:102520002A080F900F900895809110038E7F80935A
:1025300010038091190380FF0CC01F921F9287E93E
:1025400096E09F938F930E942A080F900F900F9010
:102550000F900E9485120E94CA0E089590E080E0BC
:102560000E94EA2E863E9E4F19F40E946C12089536
:1025700080E00895B0E0A0E0E0ECF2E10C94FB2DE7
:10258000FC016280448081E08483EBE7F7E0749093
:10259000EAEFF7E0E491009113030695015810E08B
:1025A000000F111F012F1127C9EDD2E028EBC22E19
:1025B00022E0D22E30E1832E33E0932EAA24AA9477
:1025C000B12C55245A94E719EE2EF12C82E0861591
:1025D00030F0809111038883809112038983411028
:1025E00016C01B821A8296014A81698188810E94E5
:1025F000460A259683E0C80ED11C8C169D0631F73D
:102600000E94CA0ECDB7DEB7E0E10C94172E8B8185
:102610008823E9F081508B83859DC00111246C8152
:1026200070E00E94B52DFB01FF27E558F84F84911B
:10263000E82FE719E59DC0011124B7010E94B52DCF
:1026400080911303689FB00111247A83CCCF0E943C
:10265000B22EB5010E94C92D8017910724F682E0A1
:10266000861588F40E94B22EB5010E94C92D888378
:102670000E94B22E209112032695622F70E00E94D4
:10268000C92D280F29831A8280911303893C20F0D9
:1026900088EC8C838B83A7CF8431D8F784E1F9CF82
:1026A00060911003669570E04BE050E08CE091E0A3
:1026B0000E94C22E892B19F481E08093B4020E94FB
:1026C000CE099093AE028093AD028091190380FFF2
:1026D00008C089E497E09F938F930E942A080F9087
:1026E0000F900895B0E0A0E0E8E7F3E10C94FF2D2F
:1026F00049015A016B017C010E94370A8401A4013F
:102700006A2D7B2D88E090E00E94122F94014A2DC3
:102710005B2DB601C70100E20E944B2E622F84E2BE
:1027200090E00E94002FCDB7DEB7ECE00C941B2E9A
:10273000A7E0B0E0EEE9F3E10C94F92D582E262E37
:10274000442E2F839091100390FF4CC0E92FE69503
:10275000AE2FB0E0A65EBD4F8C918093B3029E7FFA
:10276000923009F043C09E012F5F3F4F852D0E949C
:10277000460A4B8169818A810E948E105092110312
:1027800020921203409213038F81882309F491C091
:10279000209110036091140370911503352D422D83
:1027A000542D80911603909117030E94721380910B
:1027B000190380FF17C0809113031F928F9380919C
:1027C00012031F928F93809111031F928F9388EFB2
:1027D00096E09F938F930E942A080FB6F894DEBF6D
:1027E0000FBECDBF2796E2E10C94152E823019F46E
:1027F00040901303C3CF863019F450901103BECF1D
:102800008930D9F3893109F0B9CFE9518E2F817020
:102810008D838E2F809581708E83E695F0E0EC5B42
:10282000F84F94919C83692E712C88EBE82E82E0FE
:10283000F82ED12CC12C10E000E09BE0892E912CC9
:102840002DE1A22E27E0B22EC601B4010E94B52DC3
:102850008D81352C81112BC0360E8091190380FF9C
:1028600013C01F929C819F931F928E818F931F9202
:102870003F921F930F93BF92AF920E942A080FB608
:10288000F894DEBF0FBECDBF9701442D622D832D7E
:102890000E94460A0F5F1F4FC60CD71C93E0E90E3B
:1028A000F11C0B30110581F60E94CA0E67CF361A53
:1028B000D4CF8091190380FF95CF1F924F921F9222
:1028C0002F921F925F9281ED96E083CFE0E1F3E0DB
:1028D000438120E1421B08F440E021E062818181D4
:1028E0000E9498130895E0E1F3E0438120E1420F54
:1028F00008F44FEF21E0628181810E9498130895CE
:10290000E0E1F3E0628120E1621B08F460E021E095
:10291000438181810E9498130895E0E1F3E0628190
:1029200020E1620F08F46FEF21E0438181810E9472
:1029300098130895E0E1F3E0818121E04381628111
:1029400080510E9498130895E0E1F3E0818121E035
:1029500043816281805F0E949813089580911403DF
:10296000882319F081508093140320911003309133
:10297000110340911203509113036091140370915D
:10298000150380911603909117030E947213089506
:1029900080911403833018F48F5F80931403209187
:1029A0001003309111034091120350911303609171
:1029B00014037091150380911603909117030E94E0
:1029C000721308959091100390FF48C09170811187
:1029D00046C092609093100320911003662309F47F
:1029E00045C030911103409112035091130360913F
:1029F00014037091150380911603909117030E94A0
:102A000072138091190380FF0FC080911003869587
:102A10001F928F9382E496E09F938F930E942A08DF
:102A20000F900F900F900F9060911003669570E0DB
:102A30004BE050E08CE091E00E94C22E892B01F126
:102A40000E94851281E08093B00220E04091130340
:102A500060911203809111030E94981308958B32A4
:102A600010F09465B7CF880F982BB4CF80911903DD
:102A700080FFDACF26951F922F9384E296E0CCCF89
:102A80000E945013DFCF8091100381608093100368
:102A90008091190380FF0DC01F9281E08F938EE516
:102AA00096E09F938F930E942A080F900F900F90AB
:102AB0000F908091100360E086950E94E2140895C3
:102AC000809110038695815009F48AE261E00E94AA
:102AD000E21408958091100386958F5F8B3208F081
:102AE00081E061E00E94E21408959091100390FF4C
:102AF00008C09695981728F0961718F40E946A1542
:102B0000089561E00E94E2140895E0E1F3E083E0BB
:102B1000808311828FEF828383831482758123E007
:102B200030E04FEF5FEF60E0868197810E94721383
:102B30000895CF93C82F80919A0282FB992790F92C
:102B40009C17F9F0C0FB82F980939A026091990278
:102B500070919A0284E090E00E941E2F82E00E9411
:102B6000D40D8091190380FF0CC01F92CF9385EE86
:102B700092E09F938F930E942A080F900F900F90DE
:102B80000F90CF9108950F931F93CF93DF93809170
:102B90008A0290918902892B80935C02909188022D
:102BA000992391F0892B80935C0220E08EE592E0DE
:102BB000FC013191CF0131112F5FF2E084369F0784
:102BC000B9F721111092880248E050E060E872E005
:102BD0008CE592E00E94CF2E892B09F441C088E059
:102BE000ECE5F2E0A0E8B2E001900D928A95E1F701
:102BF000E0911C03F0911D03309791F10280F38165
:102C0000E02D8CE592E009958091190382FF28C0A0
:102C100080FF04C082E093E00E949107D0E0C0E012
:102C20000CEF12E08091190380FF0EC0FE01E45A00
:102C3000FD4F80811F928F931F930F930E942A084C
:102C40000F900F900F900F902196C830D10551F73B
:102C50008091190380FF04C08AEF92E00E949107DF
:102C6000DF91CF911F910F91089510928A02EEE5A6
:102C7000F2E086E0DF011D928A95E9F790E080E0BE
:102C80000E94FF0990E080E00E94DA091092890218
:102C90000E94C3150895AAE2B0E0E1E5F6E10C94C4
:102CA000082E83E393E02091F100DC012D93CD0108
:102CB000B3E08B339B07B9F780913403833009F479
:102CC00072C0B8F4813009F449C0823009F4B3C04D
:102CD0008091E80083FF91C2809133039091340387
:102CE0009A3008F08AC2E92FF0E0E756F04D0C94D4
:102CF000DD2D8A3009F48EC08B3009F471C0893023
:102D000039F780913303813219F78091370390911D
:102D10003803009711F00297D9F68091E800877F79
:102D20008093E8008091E80082FF38C09091F30022
:102D30008091F200029731F48091F100813011F01E
:102D4000863021F48091F100809326038091E80081
:102D50008B778093E8000E94A208BACF809133035A
:102D6000813A09F0B5CF8091E800877F8093E80031
:102D70008091370390913803892B61F468E087E2F2
:102D800093E070E00E944E098091E8008B77809379
:102D9000E8009ECF60E090E080E0F3CF80913103C7
:102DA0008111C0CF95CF80913303813A09F090CF44
:102DB0008091370390913803892B09F089CF809156
:102DC000E800877F8093E8008091E80080FFFCCFD7
:102DD00080911A018093F1008091E8008E77B9CF3D
:102DE00080913303813209F073CF80913703909142
:102DF0003803892B09F06CCF8091E800877F80939E
:102E0000E8000E94A2088091350380931A010E9475
:102E100035165ECF80913303813209F059CF80910E
:102E2000E800877F8093E8000E94A2088091360323
:102E3000809325034DCF80913303813A09F048CF29
:102E40008091E800877F8093E8008091E80080FF10
:102E5000FCCF80912503BECF803899F0823809F0ED
:102E6000CCC1809137038F70873008F0C6C1809342
:102E7000E9008091EB0085FB882780F91092E9003A
:102E800006C080912F039091300391118260909140
:102E9000E800977F9093E8008093F1001092F10092
:102EA0008091E8008E77A5C1882309F493C1823010
:102EB00009F0A3C180913503811196C18091370338
:102EC0008F702FEF280F263008F097C18093E9000C
:102ED0002091EB0020FF88C1933031F48091EB000A
:102EE00080628093EB0080C19091EB0090619093A1
:102EF000EB0021E030E001C0220F8A95EAF7209331
:102F0000EA001092EA008091EB008860EACF81111C
:102F100074C1109135031F778091E3008078812B75
:102F20008093E3008091E800877F8093E8000E940F
:102F3000A2088091E80080FFFCCF8091E3008068C8
:102F40008093E30082E0111183E08093310355C147
:102F50008058823008F051C12091350330913603FA
:102F60002C3DE3E03E07A1F583E08A838AE2898372
:102F70004FB7F894DE01139620E03EE051E2E32FD4
:102F8000F0E050935700E49120FF03C0E295EF700A
:102F90003F5FEF708E2F90E0EA30C0F0C7968D93C0
:102FA0009D932F5F243159F74FBF8091E800877FB1
:102FB0008093E8006AE270E0CE0101960E944E091B
:102FC0008091E8008B778093E80017C1C096E7CF27
:102FD0008091370390913803432F55274330510593
:102FE00009F44AC078F54130510509F47AC08BE7FD
:102FF00090E0E7E1FEE04230510509F0FEC020918B
:10300000E800277F2093E8002091390330913A03AC
:103010008217930708F49C0140E02115310509F05F
:1030200065C0411163C08091E80082FDC9CF8091E5
:103030003103882329F2853019F28091E80083FF5B
:10304000F2CFBECF4132510509F43CC042325105A6
:1030500009F0D3C08430910508F0CFC0FC01EE0F19
:10306000FF1FE75BFD4F0190F081E02D8B5B9D4FD3
:10307000DC018C9190E01AC0332721303105D1F06A
:103080002115310561F02230310509F0B6C0E4EABE
:10309000FEE0E4918E2F90E0E4EAFEE007C0E8EC69
:1030A000FEE0E4918E2F90E0E8ECFEE0009709F45A
:1030B000A4C0A5CFEAEBFEE0E4918E2F90E0EAEB0E
:1030C000FEE0F4CF8430910508F097C0880F991F77
:1030D000FC01EF5AFD4F0190F081E02D89E090E076
:1030E0008ECF82E190E0E2E9FEE089CF809131036A
:1030F000882309F465CF853009F462CF8091E80018
:1031000083FD5ECF8091E80082FD8DCF8091E80045
:1031100080FF83CF9091F3008091F200211531055B
:1031200019F08830910550F041E0089709F040E02F
:103130008091E8008E778093E8006FCF44914093B0
:10314000F1003196215031090196E8CF803809F01D
:1031500054C08091E800877F8093E800809132031B
:103160008093F1009DCE811148C01091350312303B
:1031700008F043C08091E800877F8093E8001093B7
:1031800032030E94A208112311F084E005C080914F
:10319000E30087FDFACF81E08093310342E061ECE8
:1031A00081E00E94C10842E261EC84E00E94C10813
:1031B00042E261EC82E00E94C10842E260EC83E0FE
:1031C0000E94C10842E261EC85E00E94C108809142
:1031D000310313C080913503813079F481E093305D
:1031E00009F080E0809330031092E9008091E800BC
:1031F000877F8093E8000E94A2088091E80083FF07
:103200000AC08091E800877F8093E8008091EB00FE
:1032100080628093EB00AA96E3E00C94242ECF9377
:10322000C82F1F928F938EEA9CE09F938F930E94EA
:103230002A0881E001C0880FCA95EAF70E94F70DBD
:103240000E9435160F900F900F900F90CF91089518
:103250000E9435162FEF84E39CE02150804090407F
:10326000E1F700C0000088E19AE00FB6F894A89555
:10327000809360000FBE90936000FFCF882321F001
:103280000E94020D0E94C3150895882339F0909181
:103290008A02982B90938A020E94C315089588236E
:1032A00009F44DC0823879F40E94240A81FF47C096
:1032B00089E30E94160D0E94C31589E30E94090D3F
:1032C0000E94C3150895833859F40E94240A80FF90
:1032D00036C083E50E94160D0E94C31583E5EECF2C
:1032E000843859F40E94240A82FF29C087E40E948E
:1032F000160D0E94C31587E4E1CF9CEF980F913A19
:10330000E8F290E2980F983050F4877091E001C095
:10331000990F8A95EAF7892F0E94020DD1CF9BE57C
:10332000980F933028F490E080E00E94FF09089500
:10333000885A8B3120F490E080E00E94DA090895E9
:10334000A7E0B0E0E6EAF9E10C94002E8E010F5FF1
:103350001F4F87E0F80111928A95E9F78DE0C82E9A
:1033600082E0D82EF12CE12CAA24A394B12CF601F2
:1033700081916F018F3F09F443C0F894E82FE295E3
:10338000EF70F0E021A18F70A50102C0440F551F1E
:103390008A95E2F7CA01922F982B91A392A180956A
:1033A000892382A3789400C0E4E1F2E0912C31E01B
:1033B00021912F3F09F470C0A22FA295AF70B0E009
:1033C00090968C9190E02F7002C0959587952A95E4
:1033D000E2F780FD61C0832F982A330F52E0EA3173
:1033E000F50731F7F601319780818F3F11F00E9488
:1033F000DC0A80EA8A95F1F7F801EE0DFF1D908254
:10340000EFEFEE1AFE0AF7E0EF16F10409F0AFCF86
:1034100047E050E0B80181E992E00E94CF2E892B6D
:10342000E9F187E0F801A1E9B2E001900D928A95F7
:10343000E1F781E0809390020E94CE0990938F0281
:1034400080938E0220918E0230918F024FB7F894B4
:103450008091750390917603A0917703B0917803E2
:103460004FBF821B930B0597E8F047E050E061E9FE
:1034700072E086EA92E00E94CF2E892BC1F087E0AD
:10348000E1E9F2E0A6EAB2E001900D928A95E1F757
:1034900081E01092900207C080E09ECF8091900260
:1034A0008111D0CF80E02796EBE00C941C2E80E0B9
:1034B000F0CFA8E0B0E0EFE5FAE10C94092E66EE5B
:1034C0007EEF90E080E00E941E2F60E082E090E0BE
:1034D0000E94002F60E083E090E00E94002F109295
:1034E0008B0260E074E184E090E00E941E2F60E0B7
:1034F00086E090E00E94002F6FEF87E090E00E944E
:10350000002F40E050E0BA0188E090E00E94122FC6
:1035100060E084E290E00E94002F60E087E190E0AC
:103520000E94002F60E08CE090E00E94002F60E09D
:103530008DE090E00E94002F19821A821B821C826B
:103540001D821E821F82188648E050E068E170E00C
:10355000CE0101960E94F02E40E050E0BA0180E2D8
:1035600090E00E94122F80E00E9482110E949B1125
:1035700040E050E0BA018FE090E00E94122F40E05E
:1035800050E0BA0183E190E00E94122F2896E2E019
:103590000C94252EEF92FF920F931F93CF93DF93FE
:1035A0008B3109F420C108F0B6C08B3009F4DCC0BF
:1035B00008F088C0863009F4EAC048F4853009F480
:1035C000B8C08FE09CE00E94910780E0F0C0873097
:1035D00009F4F2C08830A9F783E090E00E94DC2E65
:1035E0001F928F9383EC99E09F938F930E942A08F8
:1035F00082E090E00E94DC2E83FB992790F91F92D5
:103600009F9382FB992790F91F929F9381FB9927A3
:1036100090F91F929F93982F91701F929F931F92E2
:103620008F938AE799E09F938F930E942A0884E002
:1036300090E00E94EA2E93FB222720F91F922F93FD
:1036400087FB222720F91F922F9386FB222720F940
:103650001F922F9385FB222720F91F922F9384FB23
:10366000222720F91F922F9383FB222720F91F92F4
:103670002F9382FB222720F91F922F9391FB222761
:1036800020F91F922F93292F21701F922F9381FBD6
:10369000222720F91F922F93282F21701F922F93FA
:1036A0009F938F938BE798E09F938F930E942A08B4
:1036B0008DB79EB78A960FB6F8949EBF0FBE8DBF8A
:1036C00081E075C0803109F4A6C080F48E3009F025
:1036D00078CF90911903892F8B7F92FF846080931C
:1036E000190382FF95C08AE39CE089C0863109F402
:1036F000A2C0893109F065CF8BE191E09F938F9350
:1037000081EA9BE09F938F930E942A080F900F906D
:103710000F900F90D5CF8A3299F1E0F4873261F1A2
:1037200028F48E3108F44DCF8D5127C0893209F02D
:1037300048CF8DE79CE00E9491070E9435169FEFCD
:1037400024E38CE0915020408040E1F700C000006D
:103750000E94B109833468F48A3308F091C085333C
:1037600059F0883309F02DCF80EE99E00E9491073F
:10377000A7CF833409F025CF80E00E940F19A0CF96
:103780008DE99CE00E9491070E94591A99CF80917F
:103790001903807F8093190386E89BE00E949107BC
:1037A00089E99CE00E94910781E080931803CDB7DE
:1037B000DEB7E6E00C94212E90911903892F8E7FBD
:1037C00090FF81608093190380FF03C081E79CE034
:1037D000CDCF84E69CE00E94910780911903817F00
:1037E000809319036DCF90911903892F8D7F91FFDD
:1037F00082608093190381FF08C087E59CE00E94E6
:103800009107809119038160EBCF89E49CE0AECFF2
:103810008AE29CE0ABCF90911903892F877F93FFB9
:1038200088608093190383FF03C08EE19CE0E7CF9B
:1038300081E19CE09BCF0E94C209162F072FF82E32
:10384000E92ED0912503C0911A010E94240AEF921B
:10385000FF920F931F931F92DF931F92CF931F929C
:103860008F9384EA9BE09F938F930E942A088DB7E1
:103870009EB70C960FB6F8949EBF0FBE8DBF20CF9B
:1038800089537BCFCF93C82F8823C9F08238C9F4DE
:103890000E94240A81FD13C089E30E94160D0E9434
:1038A000C3152FEF87EE93E0215080409040E1F761
:1038B00000C0000089E30E94090D0E94C315CF914A
:1038C00008958338A1F40E94240A80FDF8CF83E58F
:1038D0000E94160D0E94C3152FEF81EE94E0215037
:1038E00080409040E1F700C0000083E5E4CF8438D9
:1038F000A1F40E94240A82FDE2CF87E40E94160D03
:103900000E94C3152FEF81EE94E02150804090403B
:10391000E1F700C0000087E4CECF8CEF8C0F813A36
:1039200008F041C080911803882391F08130D1F0D4
:1039300010921803EEE5F2E08191C81709F45FC018
:1039400022E0E436F207C1F78C2F0E94160DB5CFA6
:1039500080918A02823271F78C2F0E94CA1A8111DB
:10396000AECFE8CF80918A028232B1F3C431B9F090
:1039700038F4CB3049F08FED92E00E94910711C0EE
:10398000C93269F0C833B9F786E89BE00E94910715
:1039900081EE92E00E94910781E08170E0CF109269
:1039A000180380E0FACF80E28C0F883068F4C7708B
:1039B00021E030E001C0220FCA95EAF780918A0227
:1039C000822B80938A0279CFEBE5EC0FE33040F451
:1039D000F0E0EC52FE4F808190E00E94FF096FCF33
:1039E000C85ACB3108F06BCFEC2FF0E0EE0FFF1F81
:1039F000E952FE4F808191810E94DA0960CF8C2FBD
:103A00000E94090D0E94C3159FCF1F93CF93DF9390
:103A1000182FD0E0C0E0893311F4C0E5D0E0812F49
:103A20000E94421C209739F4812F0E944F19DF9188
:103A3000CF911F9108958FE99FE00197F1F700C0A2
:103A400000002197EFCF0F931F93CF93DF93C62FE3
:103A5000D42F022FFC0185818823A9F060937B037A
:103A60000E94CE0990937A0380937903C77081E016
:103A700001C0880FCA95EAF70E944519DF91CF91DE
:103A80001F910F91089580917B0368133DC0209191
:103A9000790330917A034FB7F89480917503909130
:103AA0007603A0917703B09178034FBF821B930BED
:103AB000883C910548F510E21D0F6D17B9F080E2C2
:103AC000860F883040F4C77081E001C0880FCA9526
:103AD000EAF70E943E19183048F481E09D2F977054
:103AE00001C0880F9A95EAF70E944519802F0E941D
:103AF000051D183018F6D77081E001C0880FDA95DF
:103B0000EAF70E943E19BACFC77081E001C0880F62
:103B1000CA95EAF7F6CFA8E0B0E0E1E9FDE10C9440
:103B2000FB2D8C01DC0114968C911497882309F4E9
:103B3000B7C021E04C9111965C91119712966C914F
:103B4000129713967C91139715969C910E94471299
:103B50007C01F8018581882309F43BC1C70197578F
:103B60008038910508F0D9C5FFE0FE1508F489C03A
:103B70008FEF93E00E94DC2E811183C069E7A62EAF
:103B8000BB24B394E11047C0FE01339686E0DF0109
:103B90001D928A95E9F75AE0452E7501BFEFEB1AA1
:103BA000FB0AC5010E94DC2E89831A82882309F44E
:103BB00068C0813009F078C06501E2E0CE0ED11C0A
:103BC000C7010E94DC2E8A83882309F45AC09FEF24
:103BD000980F933070F5F3E0AF0EB11CC6010E9450
:103BE000DC2E8B83882309F44CC01C82DE011196E5
:103BF0007D01F7012081222381F2213009F094C058
:103C000091818281913009F051C0F2E0EF0EF11CF8
:103C10000E94051D52C0A11424E0B20691F1C50115
:103C20000E94DC2E811101C0EA943FEFA31AB30A6F
:103C3000A9CF56018430D1F642E0E42EF12C560192
:103C40002FEFA21AB20AC6010E94DC2EE1E0F0E0DA
:103C5000EC0FFD1FEE0DFF1D8083882391F08C3744
:103C600041F4E2E0F0E0EC0FFD1FEE0DFF1D1082CD
:103C7000BDCF3FEFE31AF30A650187E0E816F104D0
:103C8000F1F680917F02877059F0F80185818823D1
:103C900039F080919A0282FF03C082E00E94D40D25
:103CA0002896E0E10C94172E5701A0CF923049F4EA
:103CB00022E0E20EF11C0E94421CEFEFEE1AFE0A17
:103CC00098CF933031F432E0E30EF11C0E944F198B
:103CD000F4CF943021F08FEFE81AF80AEECF92E09B
:103CE000E90EF11C30E020E0B7016F5F7F4FD70194
:103CF00011964C918053990B8A30910550F02150C8
:103D00003109D8F2EFE9FFE03197F1F700C0000088
:103D1000F6CF429EF001439EF00D11249C012E0F20
:103D20003F1F842F7B01E0CFE22FF0E0EA56FE4FE9
:103D30005490822F86958695869590E0FC01EA57EF
:103D4000FE4F64902770712C022E02C07594679408
:103D50000A94E2F731E063227724FC01EA58FE4F2F
:103D60008490912C022E02C0959487940A94E2F7D5
:103D7000A1E08A229924FC01EA59FE4FC490D12C7B
:103D800002C0D594C7942A95E2F7B1E0CB22DD2496
:103D90006114710419F081EE0E94421C8114910497
:103DA00019F086EE0E94421C852D0E94051D81148B
:103DB000910419F086EE0E944F196114710419F0F4
:103DC00081EE0E944F19C114D10409F476CF8CE220
:103DD0001FCFF701E851FC47E730F10508F089C42F
:103DE000ED55F04D0C94DD2D26E241EE61EEC8015B
:103DF0000E94231D46CF27E245EE65EEF8CF26E26E
:103E000041EE60EEF4CF27E245EE64EEF0CF26E21D
:103E100041EE62EEECCF27E245EE66EEE8CF28E217
:103E200041E0EBCF8091990281608093990295C027
:103E300080919A02886080939A028FC08091990243
:103E40008260F3CF809199028460EFCF80919902D4
:103E50008860EBCF80919A028160EDCF80919A02C9
:103E60008260E9CF809199028061DFCF80919902D1
:103E70008062DBCF809199028064D7CF0E94351693
:103E8000809199028068D1CF809199028C60CDCFCA
:103E900080919A028360CFCF809199028E7FC5CFA7
:103EA00080919A02877FC7CF809199028D7FBDCF85
:103EB000809199028B7FB9CF80919902877FB5CF8E
:103EC00080919A028E7FB7CF80919A028D7FB3CF77
:103ED000809199028F7EA9CF809199028F7DA5CF85
:103EE000809199028F7BA1CF0E9435168091990213
:103EF0008F779BCF80919902837F97CF80919A0291
:103F00008C7F99CF8091990282FB992790F921E0CB
:103F1000922790FB82F990FB83F987CF80919A02D8
:103F2000982F909591708E7F892B90FB81F983CF8C
:103F300090919902892F8F7B96FF806476CF0E94A3
:103F4000351690919902892F97FB87F980586DCF8C
:103F500061E08EE090E00E94002F609199027091E4
:103F60009A0284E090E00E941E2F0E94351689CEAE
:103F700060E0EFCF90919902892F8F7E94FF80614E
:103F800054CF90919902892F8E7F90FF81604DCF01
:103F900090919A02892F877F93FF88604CCF85E3A9
:103FA000A3C380916402811104C089E20E94090DBB
:103FB0009DC385E3FBCFF7E7EF16FCE7FF0609F0AB
:103FC00059C381E00E94EB0D43E062E081E00E9472
:103FD000A70D57CE8091190380FF10C08091100368
:103FE000809581701F928F9385E892E09F938F93C5
:103FF0000E942A080F900F900F900F9020911003AD
:1040000020FF2BC02E7F209310033091110340918D
:104010001203509113036091140370911503809162
:104020001603909117030E9472138091190380FF69
:104030000FC08091100381701F928F9386E192E0F0
:104040009F938F930E942A080F900F900F900F90CC
:104050000E9485120E94CA0E14CE21602093100384
:104060008091190380FF0DC01F9281E08F938EE431
:1040700092E09F938F930E942A080F900F900F90C9
:104080000F908091100361E086950E94E214F9CDB3
:1040900040E655E16AE675E10E94310AF2CD4AE652
:1040A00055E160E675E1F8CF4AE954E164EA74E16C
:1040B000F3CF44EA54E16AE974E1EECF40E854E119
:1040C0006DE874E1E9CF4DE854E160E874E1E4CFD4
:1040D00046E654E163E774E1DFCF43E754E166E687
:1040E00074E1DACF4EEA54E168EC74E1D5CF48ECE4
:1040F00054E16EEA74E1D0CF61E081E0C6CF65E0C3
:1041000082E00E947515BDCD68E086E0FACF6EE0D2
:1041100089E0F7CF64E18FE0F4CF67E185E1F1CF8B
:1041200061E088E1B2CF62E289E1EBCF61E083E256
:10413000ACCF6AE285E2E5CF27E7E2162CE7F2068C
:1041400009F456C038E7E3163CE7F30609F454C017
:10415000D80115968C911597ED90FC90882309F461
:1041600085C0C7010E94E811D82E682FC7010E94A0
:104170006D0DB7018D2D0E94DA110E94E40B7C01B8
:10418000882EF801A580968092943FE0932280913A
:104190007F028770F1F0CA2CAA20E1F08F2D807F7A
:1041A000803451F080E28E0D883098F0911004C078
:1041B0008F2D807E803269F080919A0282FF09C043
:1041C00082E00E94D40D80917F028770CC24C3943A
:1041D0008111C12CBF2CB2942FE0B222FBE0FB1561
:1041E00008F4ACC0EB2DF0E0E655F04D0C94DD2D5D
:1041F00081E00E94C70DE8CE82E0FBCFFBE5EF1621
:10420000FCE7FF0689F12CE5E2162CE7F20611F136
:104210003AE5E3163CE7F30609F09ACF81E021C0C6
:1042200090911903892F8E7F90FF816080931903ED
:1042300080FF05C08EEC92E00E94910722CD8CEBAE
:1042400092E0FACF6FEF7FEF90E080E00E941E2FA8
:104250000E94281980919A0282FB882780F991E0B8
:1042600089270E94991574CF80E0FBCFC7010E9477
:10427000390DD82E7ECF2F2D2F70D22E8F2D807FEF
:1042800019F0D29490EFD922AA20B9F0DD2069F07C
:1042900080E28E0D883010F0811009C080918A0272
:1042A000D82AD0928A020E94C3158E2D45C08091D3
:1042B0008902D82AD0928902F6CF8E2D0E944F19FA
:1042C000DD20E1F180E28E0D883010F0811004C015
:1042D0008D2D0E94020D06C0D09480918902D822B3
:1042E000D09289020E94C31529C03F2D3F70D32E62
:1042F0008F2D807F803219F0D29480EFD8228820D1
:1043000059F081E0881609F481C0AA2009F48DC013
:10431000992009F44FC0C9CF80919A0282FD46C00E
:10432000AA20F1F1DD2039F080918A02D82AD092BA
:104330008A020E94C31580E00E94421CAB2DA85047
:10434000BB0B149710F40E94240ACC20A9F0809192
:104350007F0280FD11C0F8011582869586958695AD
:104360000E94EB0DC8010E948B1D80917F028695F3
:10437000869586950E94C70D20E0D8014C91119634
:104380005C91119712966C91129713967C911397EA
:1043900014968C91149715969C910E94471280CC8C
:1043A00080E00E944F19DD2049F292CFAA20A1F0AF
:1043B000911004C08D2D0E944519C0CF91E0991233
:1043C000BDCF809188029D2D9823D91609F4B6CFD0
:1043D000D82AD0928802B2CF9110B0CF8D2D0E94F2
:1043E0003E19909188028D2D892329F08D2D80957D
:1043F000892380938802809165029D2D982309F47A
:104400009DCFD094D822D092650298CFAA2029F0CF
:10441000A5E0A91508F492CFCDCFB4E0B91508F402
:104420008DCF8D2D0E943E1989CF9920D1F3E9E3DC
:104430008E1209C0FFEF27EE33E0F15020403040EC
:10444000E1F700C000008E2D0E944F1977CF8F2D0D
:1044500086958695837061F0813009F06FCFC70132
:104460009370A11002C080E090E00E94DA0966CF4C
:10447000C7019370A11002C080E090E00E94FF0984
:104480005DCF8F2D837091F5A11058CF4E2D4295A1
:1044900046954770440F440F8E2D8F70042E01C037
:1044A000880F0A94EAF72E2D2071E4FE07C02FE052
:1044B00030E001C0220F4A95EAF720953F2D36954E
:1044C00036953370323069F050F440918B023130C0
:1044D00029F0822B84230E94F70D30CF842B822B6E
:1044E000FACF282B80918B028227F5CF8695AA20C0
:1044F00011F08F2D8170882309F420CF4E2D429525
:1045000046954770440F440F8E2D8F70042E01C0C6
:10451000880F0A94EAF72E2D2071E4FE07C02FE0E1
:1045200030E001C0220F4A95EAF720953F2D3695DD
:1045300036953370323069F050F440919802313042
:1045400029F0822B84230E94A40DF8CE842B822B89
:10455000FACF282B809198028227F5CF8F2D8F706C
:10456000F82EAA2021F00E94EB0D8E2D24CF8E2D47
:104570000E943E198F2D0E94C70DE0CE8E2D92EF26
:104580008916B1F1981570F0A0EF8A16D1F0B1EF4D
:104590008B1691F0AA2009F45DC0911086CE8F2D64
:1045A0008F712AC0E3EF8E1651F1F4EF8F12F2CF24
:1045B00080919A0282FD2FC08F2D8F71AA20D9F28F
:1045C0001BC0AA2081F024E0291508F4B7CE2F2DB6
:1045D0002F7181E090E001C0880F2A95EAF7909151
:1045E00098028927B0CF35E0391508F4A7CEEFCF70
:1045F0008F2D8F71A110BFCF0E94EB0D9FCE80E059
:10460000AA2009F4A0CF9F2D9F7181E001C0880FDF
:104610009A95EAF798CFAA2091F08F2D8F71F82EF6
:104620000E94EB0D80919A0282FF07C0A8E0FA9EDB
:10463000C0011124836080937F028F2DDDCF81E044
:104640000E94D40DB1E0B91508F078CE82E00E9446
:10465000D40D74CE992059F0893309F0F4CEEFEFE0
:10466000F7EE23E0E150F0402040E1F7EACE8F2D55
:104670008F7181CF82E0B8E7EB16BCE7FB0609F447
:10468000A1CC83E0E8168CE7F80609F4DBCD08F04E
:10469000B5CDA1E0EA16ACE7FA0609F4D9CD08F0E9
:1046A000BFCDE114ECE7FE0609F052CD0E943516AD
:1046B0008FEF94E3ACE081509040A040E1F700C060
:1046C00000000E94B109E6E1EE16ECE7FE0609F0F3
:1046D00072CC80918A028A7A91E009F490E09093FA
:1046E000640281115CCC89E20E94160D0E94C31500
:1046F000C8CAF6E1EF16FCE7FF0609F452CC809138
:104700008A028272F701E052F847E531F10508F0BC
:1047100013CDEA54F04D0C94DD2DF701E851FC4720
:10472000E730F10508F45CCB10927B03C70190578A
:10473000839748F684E090E00E94EA2E90939A02D4
:1047400080939902F701E150F047E232F10508F059
:1047500069CBE553F04D0C94DD2DCF93DF93809121
:104760007E02807F09F04DC080917D02882309F48C
:1047700048C0E091740350913B03C0917902D091FD
:10478000780260917A0270917B0247E05E17C9F16E
:104790008E2F90E0E49FF0011124E45CFC4F248113
:1047A000222391F1489FF001499FF00D1124DF0170
:1047B000A45CBC4F11962C9111972C1325C02C9101
:1047C0002D1322C015962C91159721111DC01296FC
:1047D0002D913C91261B370B283C3105A8F4809184
:1047E0007E028F70806180937E02EE5BFC4F808141
:1047F0008F708061808388E792E00E948B1D0E9409
:104800002F0DDF91CF910895FC013196E770BECF57
:10481000A4E1B0E0EEE0F4E20C94FF2D8C0186E020
:10482000F801DE011F9601900D928A95E1F7F801DB
:104830008481E58098E7A92E92E0B92E90917C02C0
:10484000911128C0882319F1EE20F1F0C8010E94CF
:104850002412F82E8823C1F087E0F801D5010190D9
:104860000D928A95E1F780917C02813031F480913C
:104870007802909179020E9417120E94AD238F2D29
:104880006496ECE00C941B2EC8010E948B1DFF2443
:10489000F394F5CFD080C18082809380F0907D0228
:1048A00020917A0230917B02A401421B530BFF201E
:1048B00009F4D9C0483C510508F092C08823F9F2A8
:1048C0009091790280917E02282F207F09F056C0B6
:1048D000C91214C090917802D91210C0E11048C0DA
:1048E0008F70806180937E0288E792E00E948B1D2A
:1048F00080917E02F8018683F12CC1CFE11038C08F
:104900006C2D8D2D0E9433086C2D8D2D0E94330847
:10491000E82E8111F1CFDF86C88A8F8598890E94A1
:104920001712292F22952F70243058F49F702230AF
:1049300088F0992399F0F8019681907F79F4FE2C04
:104940009ECF2A5F2F70223068F0C8010E948B1D15
:10495000EF2CF5CF992311F0882389F3805E8830FE
:1049600070F3F3CF803F58F3815F833070F7E7CF68
:1049700080917E02816080937E02BECFC91207C003
:1049800090917802D91203C0EE2009F48DC0C801BD
:104990000E942412882309F477CFEE2009F474CF03
:1049A00080917E02803288F02091780230917902E5
:1049B000398728879B868A8690917C029C871D86F2
:1049C0008E87CE0108960E948B1D87E0F801A8E72C
:1049D000B2E001900D928A95E1F70E94AD2357CF86
:1049E00090917E02292F207F51F488E792E00E9467
:1049F0008B1D87E0F50111928A95E9F77DCF882319
:104A000009F43DCF809179028C1110C08091780219
:104A1000D8120CC0E1100AC09683C8010E948B1DF9
:104A200087E0F50111928A95E9F729CFC8010E9424
:104A30002412882309F428CFEE2009F425CF809191
:104A40007E02803210F220917802309179023A830E
:104A500029839C828B8290917C029D831E828F830E
:104A6000CE010196B0CF483C5105D0F6882309F419
:104A70000ECFFE2CEE2009F407CF809179028C1125
:104A800020C080917802D8121CC080917E0280FDE7
:104A90000FC0982F907F61F08683903F31F0982F60
:104AA000907F905F8F70892B8683C8010E948B1D39
:104AB00087E0F801A8E7B2E001900D928A95E1F74E
:104AC000DECEC8010E94241281117FCF80917E0228
:104AD000816080937E02C8010E948B1DD0CEABE125
:104AE000B0E0E5E7F5E20C94072E4E8B5F8B688F04
:104AF000798F8A8F9B8F192F9111109289021D8AAD
:104B000086E0FE017696DE011F9601900D928A9551
:104B1000E1F70A8D002341F021E04F85588969892A
:104B20007A89C8010E9447120B8B1C8B87E0FE011B
:104B30003F96DE01189601900D928A95E1F7CE011D
:104B400008960E94082481110CC087E0FE01389667
:104B5000DE01119601900D928A95E1F78C85811105
:104B60000BC017E08091740390913B03891331C00F
:104B70006B96E4E00C94232E20913B0330E0C901B6
:104B8000019687709927409174034817190699F088
:104B900097E0929FD001939FB00D1124A45CBC4F6D
:104BA000FE01319601900D929A95E1F780933B03B7
:104BB0000E942F0DD6CF0E94351610923B03109203
:104BC000740387E0E8E7F2E0DF011D928A95E9F7D8
:104BD000C8CF819FC0011124845C9C4F0E9408248F
:104BE000882331F28091740390E0019687709927B1
:104BF00080937403B7CFA6E0B0E0E1E0F6E20C9456
:104C0000072E0E94CE098C0180918C0290918D021A
:104C10008017910781F019821A820E94CE09682FAD
:104C200049815A81792F80E090E00E946F2510938E
:104C30008D0200938C022696E4E00C94232E1F92A2
:104C40000F920FB60F9211242F933F934F935F93C0
:104C50006F937F938F939F93AF93BF93CF93DF9384
:104C6000EF93FF93D091E900DF708091EC00C82FA3
:104C7000C17080FDC0E81092E9008091F000877F4C
:104C80008093F00078940E944B161092E900809176
:104C9000F00088608093F000CD2BCF70C093E900C6
:104CA000FF91EF91DF91CF91BF91AF919F918F9144
:104CB0007F916F915F914F913F912F910F900FBE18
:104CC0000F901F9018951F920F920FB60F921124FC
:104CD0002F933F934F935F936F937F938F939F9304
:104CE000AF93BF93EF93FF938091E10082FF15C0D4
:104CF0008091E20082FF11C08091E1008B7F809360
:104D0000E100209123032F5F822F62E30E949B2DFD
:104D1000992309F4C0C0209323038091DA0080FF17
:104D200028C08091D80080FF24C08091DA008E7F57
:104D30008093DA008091D90080FFE3C080E189BDD3
:104D400082E189BD09B400FEFDCF81E0809331038B
:104D500083E09EE00E94910780912403811109C0A5
:104D60000E9452080E94F3088091E20084608093C0
:104D7000E2008091E10080FF1BC08091E20080FF93
:104D800017C08091E2008E7F8093E2008091E20064
:104D900080618093E2008091D80080628093D80087
:104DA00019BC85E0809331038BE09EE00E9491075F
:104DB0008091E10084FF2FC08091E20084FF2BC02E
:104DC00080E189BD82E189BD89B5982F917080FF0E
:104DD000FBCF8091D8008F7D8093D8008091E10037
:104DE0008F7E8093E1008091E2008F7E8093E200CD
:104DF0008091E20081608093E200809132038823F9
:104E000009F489C084E0809331038FE09EE00E9422
:104E10009107809131038091E10083FF2BC0809145
:104E2000E20083FF27C08091E100877F8093E1004B
:104E300082E080933103109232038091E1008E7FF3
:104E40008093E1008091E2008E7F8093E200809168
:104E5000E20080618093E20042E060E080E00E9436
:104E6000C1088091F00088608093F00083E19EE0AB
:104E70000E949107FF91EF91BF91AF919F918F9108
:104E80007F916F915F914F913F912F910F900FBE46
:104E90000F901F901895109223038091220388236E
:104EA00009F43BCF809131038430C1F49091E90043
:104EB0009F702091EC00822F817020FD80E8892B6B
:104EC00095E09093E9009091EB0090FF04C09091E1
:104ED000EE0097FD08C08F708093E90010922203C6
:104EE0001CCF1092F1009091E80095FDFACF9091BF
:104EF000E80090FFF0CF9091E8009E779093E80053
:104F0000EACF19BC1092310387E09EE00E9491071E
:104F1000109224032ECF8091E30087FD93E09093BD
:104F2000310373CF78941F921FB61F9211248F9371
:104F30009F93AF93BF938091750390917603A09157
:104F40007703B09178030196A11DB11D809375037D
:104F500090937603A0937703B0937803BF91AF91BA
:104F60009F918F911F901FBE1F9018951F921FB683
:104F70001F9211248F939F93AF93BF93809120032F
:104F8000811113C08091750390917603A0917703EE
:104F9000B09178034196A11DB11D80937503909344
:104FA0007603A0937703B0937803BF91AF919F915D
:104FB0008F911F901FBE1F901895CDB7DEB7A69793
:104FC0000FB6F894DEBF0FBECDBF85B7806885BF32
:104FD00085B7806885BF84B7877F84BF0FB6F89494
:104FE000A8958091600088618093600010926000B5
:104FF0000FBE80E890E00FB6F89480936100909324
:1050000061000FBE82E19EE090935B0280935A02A2
:105010000E9452080E94F3088091E200846080930D
:10502000E2007894809131038823A1F01091E90087
:105030001F709091EC00892F817090FD80E8182BF3
:105040001092E9008091E80083FD0E944B161F70CA
:105050001093E90082E084BD93E095BD9AEF97BD7F
:1050600080936E000E946C12811102C00E949B11FD
:105070000DE012E074E1E72E72E0F72ED8018D9179
:105080008D018F3F11F00E94DC0AE016F106B1F7A6
:1050900004E112E06AE1E62E62E0F62EF801819169
:1050A0008F018F3F11F00E94DC0AE016F106B1F784
:1050B00087E0E6EAF2E0DF01282F1D922A95E9F762
:1050C000E1E9F2E0DF011D928A95E9F70E94AE1254
:1050D000811102C00E94591A82E090E00E94DC2EE9
:1050E0008093190384E090E00E94EA2E90939A0244
:1050F000809399020E94A019BFEFE6E7F1E0B1505A
:10510000E040F040E1F700C000000E94A01980914B
:10511000A60280FF08C06FEF7FEF90E080E00E9462
:105120001E2F0E94B10983E090E00E94DC2E0E94B5
:10513000F70D80919B0281111EC18091190380FFA0
:1051400014C086E594E09F938F930E942A08809173
:1051500019030F900F9080FF08C080E494E09F93A4
:105160008F930E942A080F900F900E94AE12811117
:1051700010C08091190380FF08C088E194E09F93DC
:105180008F930E942A080F900F900E94591A0E9434
:10519000851588E090E00E94E42E4B015C0184E2DA
:1051A00090E00E94DC2E282F30E040E050E060E0EC
:1051B00070E080E090E000E20E94302E282939293A
:1051C0004A295B2920931003309311034093120363
:1051D0005093130360931403709315038093160385
:1051E000909317032E7FF1F58091190380FF08C07B
:1051F0008FEC93E09F938F930E942A080F900F905B
:105200000E94851588E090E00E94E42E6B017C01ED
:1052100084E290E00E94DC2E282F30E040E050E055
:1052200060E070E080E090E000E20E94302EB22F5B
:10523000A32FF42FE52F5B0197018601BC29A12B39
:10524000FE29E32BB0931003A0931103F0931203F4
:10525000E093130360931403B09215038093160335
:10526000909317030E94370A8091190380FF76C03C
:1052700086EB93E09F938F930E942A0880911903F5
:105280000F900F9080FF6AC08091100381701F9271
:105290008F9389E993E09F938F930E942A088091CE
:1052A00019030F900F900F900F9080FF57C08091BF
:1052B000100386951F928F938EE793E09F938F93B1
:1052C0000E942A08809119030F900F900F900F9061
:1052D00080FF44C0809111031F928F9384E693E076
:1052E0009F938F930E942A08809119030F900F902B
:1052F0000F900F9080FF32C0809112031F928F9306
:105300008AE493E09F938F930E942A088091190367
:105310000F900F900F900F9080FF20C0809113038B
:105320001F928F9380E393E09F938F930E942A08AC
:10533000809119030F900F900F900F9080FF0EC077
:10534000809114031F928F9384E193E09F938F9336
:105350000E942A080F900F900F900F901092B402A5
:105360008091100380FF04C060E086950E94E214E3
:1053700081E080939B0284E091E090931D038093F1
:105380001C034DEA242E42E0342E55EA452E52E00D
:10539000552E809131038530F1F48091190380FFFF
:1053A00004C08DE694E00E949107FF24F39400E18D
:1053B00012E180913103853009F459C00E943516FD
:1053C0000E94240A10929D0280919C0281110E94E9
:1053D00043150E9450130E94A0192EE9E22E22E0EC
:1053E000F22E36EA632E32E0732ED301F70191914B
:1053F0008D914E165F0609F482C09817C1F3809113
:10540000190381FD15C110E0AA24A394D3010D91C5
:105410003D01F701B1907F01B01619F1B026D12CF2
:10542000CC24C3948B2D8C21A1F0D9A21AA30E9465
:10543000CE099CA38BA3ADA291E0802F8C2109F40F
:1054400090E09EA349A15AA16BA17CA18DA10E94CD
:105450006F25D394CC0CF6E0DF12E4CFF70131973F
:1054600000831F5F173091F60E94C2094CC08091E3
:105470003103843009F433C00E94851280919D026B
:10548000811109C0F0929D02809110038170809378
:105490009C020E9494121092200388E190E0A0E404
:1054A0000FB6F894A895809360000FBEA09360009B
:1054B00083B7817F846083BF83B7816083BF789423
:1054C000889583B78E7F83BF0FB6F894A895809197
:1054D0006000886180936000109260000FBE809130
:1054E0003003882309F465CF0E94A019E6EAF2E0B0
:1054F0008191811101C32E163F06D1F75ACF98131F
:105500007ECF0E94FB258091B4028823D1F1809147
:10551000B302E0911003E695E81BE093AF028230FE
:1055200009F0BCC0F0E0EE54FB4FE4910E2F10E008
:10553000A0E0EA2EA1E1FA2E8091B002882361F06A
:105540001092B0020E94CE099093AE028093AD02F9
:105550001092B2021092B1020E94CE09E091AD0207
:10556000F091AE028E1B9F0B8F3F9F4750F4E00FD0
:10557000F11FF093AE02E093AD028DEA92E0F701E5
:1055800009950E94240A182F8091A502181731F15D
:105590001093A5020E94C2098091190382FF1EC0C8
:1055A00080FF1CC08DEB94E00E949107809119034D
:1055B00080FF14C01F921F9388EB94E09F938F93FA
:1055C0000E942A08809119030F900F900F900F905E
:1055D00080FF04C086EB94E00E9491078091310324
:1055E000843009F0D6CE83E08093E9008091E80012
:1055F00082FFCFCE8091E80090E085FF06C00E9438
:105600007108882309F4B6C091E08091E8008B7797
:105610008093E800992309F4BCCE8981EFEFE80F6D
:10562000E33108F0D0C0F0E0E351F04D0C94DD2DF3
:1056300082E994E00E949107B6EAAB2EB2E0BB2E5D
:1056400010E000E08DE8882E84E0982E95E8C92EC1
:1056500094E0D92E1F930F939F928F920E942A0855
:105660008AE894E00E949107F50181915F010E9410
:10567000FA0D1F928F93DF92CF920E942A0883E83F
:1056800094E00E9491070F5F1F4F0FB6F894DEBFA2
:105690000FBECDBF07301105E9F6B5CE863059F4FF
:1056A000F0E0E155FB4FE4910E2F10E0F0EFEF2E0C
:1056B000F0E1FF2E41CF893061F4E695F0E0E4554A
:1056C000FB4FE4910E2F10E0E4E6EE2EE0E1FE2E1B
:1056D00033CF8F3061F4E695F0E0E755FB4FE4916E
:1056E0000E2F10E07FEFE72E7FE0F72E25CF8531DC
:1056F00059F4F0E0EA55FB4FE4910E2F10E061EB16
:10570000E62E6FE0F62E18CF08E210E036E3E32E27
:105710003FE0F32E883109F40FCF833249F4E4EAF5
:10572000F4E0059114915FE9E52E50E1F52E04CFE8
:1057300004EF11E02FEFE22E2EE0F22E843209F476
:10574000FBCE00ED17E09CEAE92E99E0F92E8532B8
:1057500009F0F2CE8E2F63E00E949B2DE92FF0E03E
:10576000EF55FB4FE4910E2F10E04AEBE42E42E19F
:10577000F42EE2CE80E2E82EF12C8E010F5F1F4F57
:105780008091E80085FD0AC08091E8008B778093C6
:10579000E8000E947108882399F336CF8091F100C8
:1057A000D8018D938D01B1E0EB1AF10849F72CCFA8
:1057B0001A828CE08B831BC08A81823009F4B2C1CB
:1057C00028F4813061F08FEF898311C08330C1F0FC
:1057D0008430C9F71B821C821D821E8208C00E9471
:1057E000C2090E94E32D6B837C838D839E8340E2FC
:1057F00050E0BE016F5F7F4F82E00E94740EC9CD02
:105800002B81822F90E0FE013496245E8730910533
:1058100070F7DC01AA55BD4F3C91319301962813D6
:10582000F5CFE5CF8A818230E9F0853061F680914D
:10583000190380FF10C080911003809581701F9222
:105840008F938BEE94E09F938F930E942A080F9082
:105850000F900F900F908091100380FF0EC00E9458
:105860009412C5CF6B817C818D819E810E94E32D36
:1058700088E290E00E94002FBACF0E944315B7CF74
:105880004C816B818A810E94AB11982789279827C8
:105890009E838D83ACCF2D813E81322723273227F3
:1058A0004C816B818A810E942411A1CF0E944A11F0
:1058B0009ECF9A81923009F086CF883009F446C095
:1058C000893009F46EC08B81823009F1A8F48130EF
:1058D00009F08DCF8C81EFEF8E9FC00111246FEF07
:1058E00070E00E94B52D462F20E060911203809158
:1058F00011030E9498137BCF8330A1F0843009F00C
:1059000076CF20E0409113036D818C81F2CF8C81A2
:10591000882309F4A4CF0E94431560E08C810E9483
:10592000E21465CF8C81809314039091190390FF4A
:105930005ECF1F928F9388EC94E09F938F930E9489
:105940002A080F900F900F900F9051CF8B818230CB
:10595000E1F078F4813009F04ACF80911303FFEF32
:105960008F9FC00111246FEF70E00E94B52D6C83F2
:105970003ECF833099F0843009F039CF8091110304
:105980008C83809112038D8332CF8091100380FF2E
:1059900003C086958C832BCF80E0FCCF80911403CD
:1059A000F9CF2091100330911103409112035091CF
:1059B0001303609114037091150380911603909165
:1059C00017030E94721313CF80E18A8310CF82E005
:1059D0008A8387E8EFCEEA80FB80FE24EF24FE2452
:1059E0008E010F5F1F4FCC80C00ED12ED11CC7017E
:1059F00087589E4F0C151D0509F4F9CE27E8E216CD
:105A000022E0F20658F40E94DC2ED80114968C9302
:105A1000FFEFEF1AFF0A0F5F1F4FE9CFF801148263
:105A2000F7CF0A811B81102701271027CE0101968D
:105A30006C01EC80E00EF12EF11CC80187589E4FDE
:105A4000E016F10609F4D3CE0738A2E01A0720F4D5
:105A5000F60164810E94002FFFEFCF1ADF0A0F5F6B
:105A60001F4FEBCF0E941411C2CE84E0AECFEA806C
:105A7000FB80FE24EF24FE248E010F5F1F4FCC809D
:105A8000C00ED12ED11CC7018996C016D10609F4CB
:105A9000AECE20E5E21621E0F20658F40E94DC2E9C
:105AA000D80114968C93FFEFEF1AFF0A0F5F1F4F78
:105AB000EACFF8011482F7CF0A811B811027012752
:105AC0001027CE0101966C01EC80E00EF12EF11C46
:105AD000C8018996E016F10609F489CE0035A1E0E7
